:100000000C9462000C948A000C948A000C948A0070
:100010000C948A000C948A000C948A000C948A0038
:100020000C948A000C948A000C948A000C948A0028
:100030000C948A000C948A000C948A000C948A0018
:100040000C946B030C948A000C94C7080C94A108C0
:100050000C948A000C948A000C948A000C948A00F8
:100060000C94B5030C948A000000000024002700C3
:100070002A0000000000250028002B0000000000DE
:1000800023002600290004040404040404040202DA
:100090000202020203030303030301020408102007
:1000A0004080010204081020010204081020000012
:1000B0000008000201000003040700000000000027
:1000C0000000F90811241FBECFEFD8E0DEBFCDBF7E
:1000D00023E0A6EEB1E001C01D92A737B207E1F719
:1000E00011E0A0E0B1E0E0E6FBE102C005900D9276
:1000F000A63EB107D9F710E0C2E6D0E004C02197D0
:10010000FE010E949C0BC136D107C9F70E94540919
:100110000C94AE0D0C940000FC01918D828D98170B
:1001200061F0828DDF01A80FB11D5D968C91928DDB
:100130009F5F9F73928F90E008958FEF9FEF0895D8
:10014000FC01918D828D981731F0828DE80FF11DA1
:10015000858D90E008958FEF9FEF0895FC01918DBC
:10016000228D892F90E0805C9F4F821B91098F73B5
:100170009927089580E090E0892B29F00E9460077C
:1001800081110C9400000895833081F028F48130AF
:1001900099F08230A1F008958730A9F08830B9F045
:1001A0008430D1F4809180008F7D03C080918000E5
:1001B0008F7780938000089584B58F7702C084B5CF
:1001C0008F7D84BD08958091B0008F7703C08091AA
:1001D000B0008F7D8093B00008953FB7F894809170
:1001E000980290919902A0919A02B0919B0226B533
:1001F000A89B05C02F3F19F00196A11DB11D3FBF5F
:10020000BA2FA92F982F8827820F911DA11DB11DEC
:10021000BC01CD0143E0660F771F881F991F4A95E7
:10022000D1F708952FB7F8946091940270919502D8
:1002300080919602909197022FBF089585ED80934B
:10024000BC008091BC0084FDFCCF10929E020895FA
:1002500040914A02262F30E0240F311D2132310512
:10026000DCF420919E022430C9F4FC0180E090E08F
:10027000861758F430914A022191DC01A85DBD4FE8
:10028000A30FB11D2C930196F3CF80914A02680F02
:1002900060934A0280E0089581E0089582E0089525
:1002A0000895E091A2028091A102E81730F4F0E0F5
:1002B000E85FFD4F808190E008958FEF9FEF0895F4
:1002C0009091A2028091A102981750F4E92FF0E0DA
:1002D000E85FFD4F208130E09F5F9093A20202C053
:1002E0002FEF3FEFC90108958091A10290E0209186
:1002F000A202821B91090895CF92DF92EF92FF92A2
:100300000F931F93CF93DF937C01262F972F8A01A2
:1003100080910702882391F0C62FD72F6E01C40E5B
:10032000D51ECC15DD0571F06991D701ED91FC91D9
:100330000190F081E02DC7010995F3CF642F822F42
:100340000E942801C801DF91CF911F910F91FF906A
:10035000EF90DF90CF900895CF93DF931F92CDB7AA
:10036000DEB76983209107022223D1F020919F02FA
:10037000203240F021E030E0FC013383228380E032
:1003800090E015C08091A002E82FF0E0E951FE4F07
:10039000998190838F5F8093A00280939F0205C014
:1003A00061E0CE0101960E94280181E090E00F906B
:1003B000DF91CF910895CF92DF92EF92FF920F934A
:1003C0001F93CF93DF93CDB7DEB768970FB6F8943E
:1003D000DEBF0FBECDBF6B01FC01808191811C8A05
:1003E0001B8A1E8A1D8A188E1F8A4AE09E012F5F73
:1003F0003F4F7901B9010E940E0BF70101900020D7
:10040000E9F731978F010E191F09B801CE01439604
:100410000E942808811105C0CE0143960E944F0812
:1004200007C0188F0F8BB7018B899C890E94A70D7D
:10043000F60184819581E080F1800F89188DE114A7
:10044000F104A9F10097A1F0080F191FB801CE011E
:1004500043960E942808882351F12B893C898F8973
:10046000988DB701820F931F0E94A70D188F0F8BD5
:100470004F89588D6B897C8983EA92E00E94350709
:1004800088E291E00E94D507CE0143960E94610860
:1004900068960FB6F894DEBF0FBECDBFDF91CF9147
:1004A0001F910F91FF90EF90DF90CF900895CE01B4
:1004B00043960E944F08DCCFFC01848DDF01A80F1A
:1004C000B11DA35ABF4F2C91848D90E001968F737C
:1004D0009927848FA689B7892C93A089B1898C919B
:1004E00080648C93938D848D981306C00288F38961
:1004F000E02D80818F7D80830895CF93DF93282F17
:1005000030E0F901E255FF4F8491F901E656FF4FC3
:10051000D491F901EA57FF4FC491CC2391F0811196
:100520000E94C400EC2FF0E0EE0FFF1FE458FF4FD5
:10053000A591B491EC91ED2381E090E021F480E06D
:1005400002C080E090E0DF91CF9108951F93CF9398
:10055000DF93282F30E0F901E255FF4F8491F90134
:10056000E656FF4FD491F901EA57FF4FC491CC23CF
:10057000C9F0162F81110E94C400EC2FF0E0EE0F9D
:10058000FF1FEE58FF4FA591B4918FB7F89411114A
:1005900005C09C91ED2FE095E92302C0EC91ED2B75
:1005A000EC938FBFDF91CF911F910895CF93DF938D
:1005B00090E0FC01E656FF4F2491FC01EA57FF4F03
:1005C0008491882361F190E0880F991FFC01E8591C
:1005D000FF4FC591D491FC01EE58FF4FA591B49106
:1005E000611109C09FB7F894888120958223888380
:1005F000EC912E230BC0623061F49FB7F8943881E0
:10060000822F809583238883EC912E2B2C939FBF80
:1006100006C08FB7F894E8812E2B28838FBFDF9117
:10062000CF9108958F929F92AF92BF92CF92DF9217
:10063000EF92FF926B017C010E94ED004B015C0187
:10064000C114D104E104F104F1F00E94ED00DC01D9
:10065000CB0188199909AA09BB09883E9340A105D5
:10066000B10570F321E0C21AD108E108F10888EE63
:10067000880E83E0981EA11CB11CC114D104E104B2
:10068000F10419F7DDCFFF90EF90DF90CF90BF908E
:10069000AF909F908F9008950F931F93CF93DF9308
:1006A000EC018B011B861C861D861E8661E08881FD
:1006B0000E94A60266E970E080E090E00E941203CA
:1006C00061E08A810E94A6021A870987DF91CF9193
:1006D0001F910F9108951F920F920FB60F92112440
:1006E0002F933F938F939F93AF93BF9380919402E7
:1006F00090919502A0919602B09197023091930249
:1007000026E0230F2D3720F40296A11DB11D05C050
:1007100029E8230F0396A11DB11D20939302809316
:10072000940290939502A0939602B09397028091C1
:10073000980290919902A0919A02B0919B02019621
:10074000A11DB11D8093980290939902A0939A02E3
:10075000B0939B02BF91AF919F918F913F912F9149
:100760000F900FBE0F901F9018951F920F920FB60B
:100770000F9211242F933F934F935F936F937F9327
:100780008F939F93AF93BF93EF93FF938091B900A3
:10079000887F803609F49CC068F5883209F45BC014
:1007A00090F4803109F454C038F4882309F4F6C079
:1007B000883009F44DC0F6C0883109F44CC080324D
:1007C00009F45DC0EFC0803409F468C048F4803398
:1007D00009F455C0883309F0E5C080936F02D8C092
:1007E000803509F44FC0883509F45DC0883409F0BC
:1007F000D9C0D6C0883909F4C7C0A8F4883709F42D
:1008000067C038F4883609F463C0803709F460C0E3
:10081000C9C0883809F4B8C0803909F45FC080388D
:1008200009F0C0C05BC0803B09F486C038F4803A50
:1008300009F466C0883A09F47FC0B4C0803C09F46A
:10084000A7C0883C09F4A4C0883B09F48AC0AAC0A8
:100850008091920210C0909191028091900298171D
:1008600070F5E091910281E08E0F80939102F0E0AB
:10087000E059FD4F80818093BB0085EC86C080935A
:100880006F028EC0E091910281E08E0F8093910201
:100890008091BB00F0E0E059FD4F80839091910280
:1008A000809190026EC0E091910281E08E0F809362
:1008B00091028091BB00F0E0E059FD4F8083809170
:1008C0009D0281116DC081E080939C0284EA61C029
:1008D00083E080939E0210926E02CFCF80916E02D1
:1008E000803208F051C0E0916E0281E08E0F80935B
:1008F0006E028091BB00F0E0E25BFD4F8083BDCFD4
:1009000085EC8093BC0010929E0280916E02803232
:1009100030F4E0916E02F0E0E25BFD4F10826091F6
:100920006E0270E0E0914C02F0914D028EE492E094
:10093000099510926E0236C084E080939E02109258
:100940004B0210924A02E0914802F0914902099547
:1009500080914A02811105C081E080934A02109281
:100960002802E0914B0281E08E0F80934B02F0E071
:10097000E85DFD4F80818093BB0090914B02809198
:100980004A02981708F479CF85E88093BC000AC022
:1009900085EC8093BC0010929E0204C010926F02FE
:1009A0000E941E01FF91EF91BF91AF919F918F9196
:1009B0007F916F915F914F913F912F910F900FBE5B
:1009C0000F901F9018958F929F92AF92BF92CF92E7
:1009D000DF92EF92FF920F931F93CF93DF93CDB7E8
:1009E000DEB727970FB6F894DEBF0FBECDBF8C01E0
:1009F000F62EFC0187849088A188B2884F830E94DC
:100A000012014F81681579058A059B0518F46BE280
:100A100071E022C0F8018085882389F061E371E0EC
:100A2000CE0101960E946608BE016F5F7F4FC8012C
:100A30000E94DB01CE0101960E94610802C0FF20E6
:100A4000B1F1F801818592859C0122503109223053
:100A5000310588F469E571E0CE0101960E946608CF
:100A6000BE016F5F7F4FC8010E94DB01CE0101967E
:100A70000E946108B9C0049719F464E771E02AC0C4
:100A800062E871E0CE0101960E946608BE016F5FC8
:100A90007F4FC8010E94DB01CE0101960E946108D0
:100AA00082E090E0F8019287818761E047C04423AB
:100AB00009F463C0F801818592858130910519F0B0
:100AC0008430910519F462E971E0C6CF029701F50F
:100AD0006BEA71E0CE0101960E946608BE016F5F6D
:100AE0007F4FC8010E94DB01CE0101960E94610880
:100AF0000E941201DC01CB0180579E4FAF4FBF4FC8
:100B0000F8018787908BA18BB28B60E070E063C0A7
:100B10006AEB71E0CE0101960E946608BE016F5F2C
:100B20007F4FC8010E94DB01CE0101960E9461083F
:100B300084E090E0F8019287818760E082810E94E2
:100B4000A60266E970E080E090E00E94120360E097
:100B5000F80180810E94A6020E941201F801C4805F
:100B6000D580E680F780DC01CB018C0D9D1DAE1D8C
:100B7000BF1D83879487A587B687F801C384D48473
:100B8000E584F6840E9412016C157D058E059F0593
:100B900058F1F80183859485A585B6851816190640
:100BA0001A061B060CF569EC71E0CE0101960E9455
:100BB0006608BE016F5F7F4FC8010E94DB01CE0156
:100BC00001960E946108F801818592858230910525
:100BD00031F463E070E0C8010E944C0305C0049743
:100BE00019F461E070E0F7CF27960FB6F894DEBFF6
:100BF0000FBECDBFDF91CF911F910F91FF90EF906E
:100C0000DF90CF90BF90AF909F908F9008956F929C
:100C10007F928F929F92AF92BF92CF92DF92EF928C
:100C2000FF920F931F93CF93DF933C014B015A0127
:100C3000E90181E08093070288E68093E601109243
:100C4000A00210929F0260E080E493E00E94AC0159
:100C500080919F02813208F045C090919E029111CF
:100C6000FCCF92E090939E0291E090939D029FEFC3
:100C700090936F021092910280939002A7EEB1E0E0
:100C800020E732E0F9019E2F921B981718F49D91EE
:100C90009193F9CF1092920280919202806D80938D
:100CA000920280919C02813061F410929C028091AA
:100CB00092028093BB008091BC0083FDF8CF85EC4D
:100CC00001C085EE8093BC0080919E028230E1F3EA
:100CD00080916F028F3F31F080916F02803211F06E
:100CE00080916F021092A00210929F021092070250
:100CF00080919E028111FCCF81E080939E028093BF
:100D00009D029FEF90936F021092910296E0909354
:100D100090028093920280919202806D8093920261
:100D200080919C02813061F410929C028091920229
:100D30008093BB008091BC0083FDF8CF85EC01C09F
:100D400085EE8093BC0080919E028130E1F380911A
:100D50009102873018F48091910201C087E0A0E7EA
:100D6000B2E028E032E0F9019E2F921B981718F4A8
:100D70009D919193F9CF1092A2028093A10280E4F9
:100D800093E00E946001982F9695969596959E7097
:100D9000292F220F220F920F8F70890FF30180836A
:100DA00080E493E00E946001982F92959F708F706D
:100DB000FAE09F9F800D1124F401808380E493E08A
:100DC0000E946001982F9695969596959670292F7A
:100DD000220F220F920F8F70890FF501808380E41C
:100DE00093E00E946001982F92959F708F70FAE0B7
:100DF0009F9F800D1124888380E493E00E9460010E
:100E0000982F92959F708F702AE0929F800D1124E9
:100E1000F801808380E493E00E946001982F92950E
:100E20009F708F70FAE09F9F800D1124F7018083DF
:100E300080E493E00E946001982F92959F708F70DC
:100E4000FAE09F9F800D1124F6018083DF91CF91FE
:100E50001F910F91FF90EF90DF90CF90BF90AF90D8
:100E60009F908F907F906F900895CF92DF92EF9236
:100E7000FF920F931F93CF93DF936C017A018B0145
:100E8000C0E0D0E0CE15DF0589F0D8016D918D016D
:100E9000D601ED91FC910190F081E02DC6010995FC
:100EA000892B11F47E0102C02196ECCFC701DF919E
:100EB000CF911F910F91FF90EF90DF90CF90089509
:100EC00083EA92E00E94AE0021E0892B09F420E041
:100ED000822F08950E94990DEF92FF920F931F9316
:100EE000CF93DF93EC0181E0888F9B8D8C8D9813DD
:100EF00005C0E889F989808185FD24C0F62E0B8D17
:100F000010E00F5F1F4F0F731127E02E8C8DE8123A
:100F10000CC00FB607FCFACFE889F989808185FFFC
:100F2000F5CFCE010E945C02F1CF8B8DFE01E80F60
:100F3000F11DE35AFF4FF0820B8FEA89FB89808114
:100F4000806207C0EE89FF896083E889F989808122
:100F50008064808381E090E0DF91CF911F910F91B9
:100F6000FF90EF900895CF93DF93EC01888D882355
:100F7000C9F0EA89FB89808185FD05C0A889B98906
:100F80008C9186FD0FC00FB607FCF5CF808185FFE1
:100F9000F2CFA889B9898C9185FFEDCFCE010E944F
:100FA0005C02E7CFDF91CF910895009769F0FC01D3
:100FB00001900020E9F73197AF01481B590BBC01A4
:100FC00083EA92E00C94350780E090E008958F92D8
:100FD0009F92AF92BF920F931F93CF93DF93CDB7A2
:100FE000DEB7A1970FB6F894DEBF0FBECDBF19A232
:100FF000423008F44AE08E010F5D1F4F842E912C81
:10100000A12CB12CA50194010E947A0BE62FB90105
:10101000CA0101501109EA3014F4E05D01C0E95C35
:10102000D801EC93232B242B252B61F7C8010E94B8
:10103000D507A1960FB6F894DEBF0FBECDBFDF91E6
:10104000CF911F910F91BF90AF909F908F90089577
:101050000F931F93CF93DF93EC01888199810097C1
:1010600029F02A813B812617370788F48B016F5FAF
:101070007F4F0E94CF0C009761F0998388831B8378
:101080000A832C813D81232B11F4FC01108281E025
:1010900001C080E0DF91CF911F910F910895CF9310
:1010A000DF93EC0188819981009711F00E94370C41
:1010B000198218821D821C821B821A82DF91CF91B5
:1010C0000895FC01808191810C94370CEF92FF927E
:1010D0000F931F93CF93DF93EC01198218821B8229
:1010E0001A821D821C826115710521F18B01FB01A1
:1010F00001900020E9F731977F01E61AF70AB7015E
:101100000E942808811109C0CE01DF91CF911F9163
:101110000F91FF90EF900C944F08FD82EC82B80184
:1011200088819981DF91CF911F910F91FF90EF906E
:101130000C94A70DDF91CF911F910F91FF90EF902D
:1011400008951F920F920FB60F9211242F933F9381
:101150004F935F936F937F938F939F93AF93BF93BF
:10116000EF93FF9383EA92E00E945C02FF91EF917C
:10117000BF91AF919F918F917F916F915F914F91AF
:101180003F912F910F900FBE0F901F9018951F92B7
:101190000F920FB60F9211242F938F939F93EF937B
:1011A000FF93E091B302F091B4028081E091B90223
:1011B000F091BA0282FD12C090818091BC028F5FD3
:1011C0008F732091BD02821751F0E091BC02F0E0D4
:1011D000ED55FD4F958F8093BC0201C08081FF913A
:1011E000EF919F918F912F910F900FBE0F901F90B5
:1011F0001895E3EAF2E01382128288EE93E0A0E011
:10120000B0E084839583A683B7832CE031E03183FB
:10121000208325EC30E03587248724EC30E03787C5
:10122000268720EC30E0318B208B21EC30E0338BB3
:10123000228B22EC30E0358B248B26EC30E0378B90
:10124000268B118E128E138E148EE0E4F3E013823F
:10125000128284839583A683B7838CE191E0918386
:101260008083E0E6F3E08CE090E0918380838DE082
:1012700090E09383828388ED96EDA0E0B0E08483D4
:101280009583A683B7831086EDE4F3E02AE030E08F
:10129000318320832BE030E0338322838483958362
:1012A000A683B78310860895CF93DF93CDB7DEB7BB
:1012B00027970FB6F894DEBF0FBECDBF789484B5E4
:1012C000826084BD84B5816084BD85B5826085BD42
:1012D00085B5816085BD80916E00816080936E00D0
:1012E00010928100809181008260809381008091C2
:1012F0008100816080938100809180008160809373
:1013000080008091B10084608093B1008091B00032
:1013100081608093B00080917A00846080937A002D
:1013200080917A00826080937A0080917A008E7F2B
:1013300080937A0080917A00806880937A0010927E
:10134000C10062E088E00E94D60262E089E00E946B
:10135000D60262E087E00E94D60262E086E00E9448
:10136000D60262E085E00E94D60261E08CE00E9435
:10137000D60261E08DE00E94D60261E08AE00E9420
:10138000D60261E08BE00E94D60261E08CE00E9410
:10139000A60261E08DE00E94A60261E08AE00E9460
:1013A000A60261E08BE00E94A6021092A2021092B7
:1013B000A1021092A00210929F0210929E0281E060
:1013C00080939D0210929C0261E082E10E94A6023D
:1013D00061E083E10E94A6028091B9008E7F809334
:1013E000B9008091B9008D7F8093B90080E280932D
:1013F000B80085E48093BC00E091B302F091B402A0
:1014000082E08083E091AF02F091B0021082E0911F
:10141000B102F091B20280E180831092BB02E091B0
:10142000B702F091B80286E08083E091B502F091B6
:10143000B602808180618083E091B502F091B602AE
:10144000808188608083E091B502F091B60280814E
:1014500080688083E091B502F091B60280818F7D33
:101460008083992493946CE271E080E090E00E9484
:101470001203CE0101966C0101967C018E010D5F75
:101480001F4F9E012C5F3F4FAE014B5F5F4FBE0170
:101490006A5F7F4F05960E9407066D8170E080E0CD
:1014A00090E04AE00E94E7078DED91E00E94D507A9
:1014B0008E818A3020F48FED91E00E94D5076E81F5
:1014C00070E080E090E04AE00E94E7078DED91E057
:1014D0000E94D5078F818A3020F48FED91E00E9421
:1014E000D5076F8170E080E090E04AE00E94E70756
:1014F00081EE91E00E94D5076B8170E080E090E082
:101500004AE00E94E70783EE91E00E94D5076A81D6
:1015100070E080E090E04AE00E94E70783EE91E00F
:101520000E94D507698170E080E090E04AE00E9467
:10153000E70788E291E00E94D50788E00E947D02DB
:1015400066246394892B09F0612C89E00E947D0256
:10155000BB24B394892B09F0B12C87E00E947D0253
:1015600088248394892B09F0812C86E00E947D02D7
:1015700077247394892B09F0712C85E00E947D02F9
:10158000AA24A394892B09F0A12CA092680380912E
:101590000001909101010196883C91052CF49093F3
:1015A0000101809300012BC01092010110920001F3
:1015B000CE0101966C0101967C018E010D5F1F4FDB
:1015C0009E012C5F3F4FAE014B5F5F4FBE016A5FD4
:1015D0007F4F05960E94070690914C038D819923B9
:1015E00029F08A3060F010924C0309C0893039F438
:1015F00091E0A91620F490924C03BB24B3944B2D98
:10160000662D80E693E00E94E304472D682D8DE46B
:1016100093E00E94E3040E94BA0025CFBB274A3022
:1016200031F4992322F4BDE2909581959F4F0C945B
:101630001A0BBB27FB015527AA27880F991FAA1F42
:10164000A41710F0A41B83955051B9F7A05DAA33DD
:1016500008F0A95DA193009779F7B111B1931192A8
:10166000CB010C94330BDC01FC01672F71917723C4
:10167000E1F7329704C07C916D9370836291AE174D
:10168000BF07C8F308952F923F924F925F926F92D7
:101690007F928F929F92AF92BF92CF92DF92EF9202
:1016A000FF920F931F93CF93DF93CDB7DEB7CA1B83
:1016B000DB0B0FB6F894DEBF0FBECDBF09942A88AE
:1016C000398848885F846E847D848C849B84AA8456
:1016D000B984C884DF80EE80FD800C811B81AA81E3
:1016E000B981CE0FD11D0FB6F894DEBF0FBECDBFAE
:1016F000ED010895A1E21A2EAA1BBB1BFD010DC02E
:10170000AA1FBB1FEE1FFF1FA217B307E407F507B1
:1017100020F0A21BB30BE40BF50B661F771F881F8D
:10172000991F1A9469F760957095809590959B0123
:10173000AC01BD01CF010895EE0FFF1F0590F4919C
:10174000E02D0994CF93DF938230910510F482E06D
:1017500090E0E0917503F091760320E030E0C0E086
:10176000D0E0309711F14081518148175907C0F0FE
:101770004817590761F482819381209719F09B8360
:101780008A832BC0909376038093750326C021151E
:10179000310519F04217530718F49A01BE01DF0111
:1017A000EF010280F381E02DDCCF2115310509F135
:1017B000281B390B2430310590F412968D919C91A1
:1017C00013976115710521F0FB019383828304C097
:1017D0009093760380937503FD01329644C0FD011A
:1017E000E20FF31F81939193225031092D933C9383
:1017F0003AC02091730330917403232B41F420915C
:1018000004013091050130937403209373032091F8
:101810000201309103012115310541F42DB73EB786
:101820004091060150910701241B350BE091730391
:10183000F0917403E217F307A0F42E1B3F0B281757
:10184000390778F0AC014E5F5F4F2417350748F039
:101850004E0F5F1F509374034093730381939193D2
:1018600002C0E0E0F0E0CF01DF91CF9108950F9347
:101870001F93CF93DF93009709F48CC0FC0132973C
:1018800013821282009175031091760301151105E0
:1018900081F420813181820F931F20917303309155
:1018A00074032817390779F5F0937403E0937303F1
:1018B00071C0D80140E050E0AE17BF0750F4129657
:1018C0002D913C911397AD012115310509F1D901F5
:1018D000F3CF9D01DA013383228360817181860F0A
:1018E000971F8217930769F4EC0128813981260F2D
:1018F000371F2E5F3F4F318320838A819B819383E3
:101900008283452B29F4F0937603E093750342C05C
:101910001396FC93EE931297ED01499159919E0114
:10192000240F351FE217F30771F480819181840F32
:10193000951F029611969C938E93828193811396A4
:101940009C938E931297E0E0F0E0D80112968D916F
:101950009C911397009719F0F8018C01F6CF8D91A7
:101960009C9198012E5F3F4F820F931F209173032C
:10197000309174032817390769F4309729F41092CD
:1019800076031092750302C01382128210937403BF
:1019900000937303DF91CF911F910F910895A0E001
:1019A000B0E0E5EDFCE00C94470BEC01009721F46E
:1019B000CB010E94A20BB8C0FC01E60FF71F9C01EF
:1019C00022503109E217F30708F4ACC0D9010D9198
:1019D0001C91119706171707B0F00530110508F490
:1019E0009FC0C80104978617970708F499C0025052
:1019F0001109061B170B019311936D937C93CF0173
:101A00000E94370C8DC05B01A01AB10A4C01800EF8
:101A1000911EA0917503B091760340E050E0E12C57
:101A2000F12C109709F44AC0A815B905D1F56D90AD
:101A30007C901197630182E0C80ED11CCA14DB04AC
:101A400080F1A3014A195B096A0182E0C80ED11C2A
:101A50001296BC9012971396AC91B5E0CB16D104B8
:101A600040F0B282A38351834083D9016D937C936C
:101A70000AC00E5F1F4FC301800F911FF9019183B0
:101A80008083EB2DFA2FE114F10431F0D701139686
:101A9000FC93EE93129744C0F0937603E0937503A2
:101AA0003FC08D919C9111974817590708F4AC01DC
:101AB0007D0112960D90BC91A02DB3CF8091730340
:101AC0009091740388159905E1F446175707C8F4F7
:101AD0008091020190910301009741F48DB79EB768
:101AE0004091060150910701841B950BE817F907F7
:101AF000C8F4F0937403E0937303F9017183608376
:101B00000FC0CB010E94A20B7C01009759F0A801E5
:101B1000BE010E949E0DCE010E94370CC70104C079
:101B2000CE0102C080E090E0CDB7DEB7EEE00C94CD
:101B3000630B81E090E0F8940C94AE0DFB01DC01A6
:101B400002C001900D9241505040D8F70895FB011A
:101B5000DC0101900D920020E1F70895F894FFCF89
:101B6000C800000077038000000000006C07350704
:101B7000AE008C00A000B30700000000AC017C01A7
:101B800074016001510150010D0A004D75746564C6
:101B9000004465746563746564207261696E212117
:101BA0002121212121212121212121212121212125
:101BB000212121212121212100416C72656164795B
:101BC0002064697361626C696E672F646973616216
:101BD0006C65640053746F7020656E61626C696E31
:101BE000670053746172742064697361626C696E1A
:101BF0006700416C726561647920656E61626C6931
:101C00006E672F656E61626C65640053746F70203F
:101C100064697361626C696E6700537461727420E9
:101C2000656E61626C696E670072656163686564A8
:101C30002066696E6973682074696D65003A0030CA
:061C40000020002F00004F
:107800000C94343C0C94513C0C94513C0C94513CE1
:107810000C94513C0C94513C0C94513C0C94513CB4
:107820000C94513C0C94513C0C94513C0C94513CA4
:107830000C94513C0C94513C0C94513C0C94513C94
:107840000C94513C0C94513C0C94513C0C94513C84
:107850000C94513C0C94513C0C94513C0C94513C74
:107860000C94513C0C94513C11241FBECFEFD8E036
:10787000DEBFCDBF11E0A0E0B1E0EAE8FFE702C063
:1078800005900D92A230B107D9F712E0A2E0B1E065
:1078900001C01D92AD30B107E1F70E942D3D0C945F
:1078A000C33F0C94003C982F95959595959595958B
:1078B000905D8F708A307CF0282F295A8091C0000B
:1078C00085FFFCCF9093C6008091C00085FFFCCF60
:1078D0002093C6000895282F205DF0CF982F809127
:1078E000C00085FFFCCF9093C6000895EF92FF92F1
:1078F0000F931F93EE24FF2487018091C00087FD22
:1079000017C00894E11CF11C011D111D81E2E8164D
:1079100081EAF80687E0080780E0180770F3E09135
:107920000401F091050109958091C00087FFE9CF1E
:107930008091C6001F910F91FF90EF9008950E94D3
:10794000763C982F8091C00085FFFCCF9093C600B5
:1079500091362CF490330CF09053892F089597555D
:10796000892F08951F930E949F3C182F0E949F3CCF
:107970001295107F810F1F9108951F93182F882350
:1079800021F00E94763C1150E1F71F9108951F935A
:10799000182F0E94763C803249F0809103018F5F5E
:1079A000809303018530C1F01F9108958091C0003C
:1079B00085FFFCCF84E18093C6008091C00085FFE5
:1079C000FCCF1093C6008091C00085FFFCCF80E102
:1079D0008093C6001F910895E0910401F091050184
:1079E00009951F9108950E94763C803241F0809164
:1079F00003018F5F80930301853081F008958091AA
:107A0000C00085FFFCCF84E18093C6008091C00058
:107A100085FFFCCF80E18093C6000895E0910401CA
:107A2000F09105010995089548EC50E08823A1F0F4
:107A30002D9A28EE33E0FA013197F1F721503040CA
:107A4000D1F72D9828EE33E0FA013197F1F7215064
:107A50003040D1F7815061F708953F924F925F9285
:107A60006F927F928F929F92AF92BF92CF92DF924E
:107A7000EF92FF920F931F93CF93DF93000082E06A
:107A80008093C00080E18093C4001092C50088E11B
:107A90008093C10086E08093C2005098589A259A3E
:107AA00081E00E94143D24E1F22E9EE1E92E85E959
:107AB000D82E0FE0C02E10E1B12EAA24A394B1E479
:107AC0009B2EA6E58A2EF2E57F2EE0E26E2E79E46B
:107AD000572E63E5462E50E5352E0E94763C8033C6
:107AE000B1F18133B9F1803409F46FC0813409F404
:107AF00076C0823409F485C0853409F488C08035A5
:107B000031F1823521F1813511F1853509F485C0D6
:107B1000863509F48DC0843609F496C0843709F49B
:107B200003C1853709F472C1863709F466C08091B4
:107B300003018F5F80930301853079F6E0910401A2
:107B4000F091050109950E94763C803351F60E9420
:107B5000F33CC3CF0E94763C803249F78091C0004D
:107B600085FFFCCFF092C6008091C00085FFFCCF5E
:107B70009092C6008091C00085FFFCCF8092C60025
:107B80008091C00085FFFCCF7092C6008091C0003C
:107B900085FFFCCF6092C6008091C00085FFFCCFBE
:107BA0005092C6008091C00085FFFCCF4092C60075
:107BB0008091C00085FFFCCF3092C6008091C0004C
:107BC00085FFFCCFB092C60088CF0E94763C8638F5
:107BD00008F4BDCF0E94763C0E94F33C7ECF0E9409
:107BE000763C803809F49CC0813809F40BC1823896
:107BF00009F430C1883909F48FC080E00E94C73C85
:107C00006CCF84E10E94BD3C0E94F33C66CF85E0CE
:107C10000E94BD3C0E94F33C60CF0E94763C809362
:107C200006010E94763C809307010E94F33C55CFE9
:107C30000E94763C803309F411C183E00E94BD3C70
:107C400080E00E94C73C49CF0E94763C80930902A5
:107C50000E94763C8093080280910C028E7F809374
:107C60000C020E94763C853409F409C18091080217
:107C700090910902892B89F000E010E00E94763C87
:107C8000F801E85FFE4F80830F5F1F4F809108026D
:107C9000909109020817190788F30E94763C8032F8
:107CA00009F045CF80910C0280FFF5C0609106017C
:107CB00070910701660F771F7093070160930601AB
:107CC000A0910802B09109021097C9F0E8E0F1E034
:107CD0009B01AD014E0F5F1FF999FECF32BD21BD53
:107CE000819180BDFA9AF99A2F5F3F4FE417F5070B
:107CF00099F76A0F7B1F70930701609306018091CB
:107D0000C00085FFFCCFF092C6008091C00085FFC7
:107D1000FCCFB092C600E1CE83E00E94C73CDDCE2E
:107D200082E00E94C73CD9CE0E94763C8093090233
:107D30000E94763C80930802809106019091070191
:107D4000880F991F90930701809306010E94763C4B
:107D5000853409F49AC080910C028E7F80930C02C6
:107D60000E94763C803209F0B8CE8091C00085FF39
:107D7000FCCFF092C600A0910802B09109021097C2
:107D8000C1F180910C02082F0170182F1695117007
:107D9000E0910601F0910701AF014F5F5F4FBA011B
:107DA00020E030E00023B1F4112339F49491809164
:107DB000C00085FFFCCF9093C6002F5F3F4FCB01E3
:107DC0000196FA012A173B0780F4BC014F5F5F4F11
:107DD000002351F3F999FECFF2BDE1BDF89A90B5B9
:107DE0008091C00085FFFCCFE6CF709307016093C0
:107DF00006018091C00085FDE5CE8091C00085FF21
:107E0000F8CFE0CE81E00E94C73C67CE0E94763C6E
:107E1000803209F08CCE8091C00085FFFCCFF092BB
:107E2000C6008091C00085FFFCCFE092C600809123
:107E3000C00085FFFCCFD092C6008091C00085FFB6
:107E4000FCCFC092C6008091C00085FFFCCFB092ED
:107E5000C60043CE80E10E94C73C3FCE0E94763CE4
:107E60000E94763C182F0E94763C112309F483C0AF
:107E7000113009F484C08FE00E94C73C2ECE80915F
:107E80000C02816080930C02F1CE80910C02816023
:107E900080930C0265CF809107018823880F880B9F
:107EA0008A2180930B028091060190910701880F2F
:107EB000991F90930701809306018091080280FF2B
:107EC00009C08091080290910902019690930902DD
:107ED00080930802F894F999FECF1127E0910601EA
:107EE000F0910701C8E0D1E0809108029091090269
:107EF000103091F40091570001700130D9F303E084
:107F000000935700E8950091570001700130D9F3B4
:107F100001E100935700E8950990199000915700EE
:107F200001700130D9F301E000935700E8951395F3
:107F3000103498F011270091570001700130D9F3E7
:107F400005E000935700E89500915700017001305B
:107F5000D9F301E100935700E8953296029709F0B2
:107F6000C7CF103011F00296E5CF11248091C000E8
:107F700085FFC5CEC8CE8EE10E94C73CAECD85E957
:0A7F80000E94C73CAACDF894FFCF81
:027F8A00800075
:040000030000780081
:00000001FF
