:100000000C9464000C948C000C948C000C948C0068
:100010000C948C000C948C000C948C000C948C0030
:100020000C948C000C948C000C948C000C948C0020
:100030000C948C000C948C000C948C000C948C0010
:100040000C941F080C948C000C94320B0C94640BD1
:100050000C948C000C948C000C948C000C948C00F0
:100060000C9431060C948C00000000080002010082
:100070000003040700000000000000000102040863
:100080001020408001020408102001020408102002
:10009000040404040404040402020202020203032E
:1000A00003030303000000002300260029000000D2
:1000B0000000250028002B0000000000240027007D
:1000C0002A00D8004705940B11241FBECFEFD8E0BB
:1000D000DEBFCDBF11E0A0E0B1E0E2E0FFE102C091
:1000E00005900D92A43FB107D9F723E0A4EFB1E04A
:1000F00001C01D92A538B207E1F710E0C8ECD0E0CE
:1001000004C02297FE010E94030DC23CD107C9F72B
:100110000E94FC080C947F0F0C940000982F92957D
:100120009F708F702AE0929F800D1124089562E0E5
:1001300088E00E94870762E089E00E94870762E00A
:1001400087E00E94870762E086E00E94870762E0FE
:1001500085E00E94870761E08CE00E94870761E0EC
:100160008DE00E94870761E08AE00E94870761E0D6
:100170008BE00E94870761E08CE00E94C00761E08D
:100180008DE00E94C00761E08AE00E94C00761E044
:100190008BE00E94C0078BE192E00E94B70426E04A
:1001A00040E051EE60E070E084EE92E00C94EE09E5
:1001B0000F931F9308ED16ED20E030E04DE050E086
:1001C0006CE070E087E092E00E949C0208ED16ED82
:1001D00020E030E04BE050E06AE070E084EF91E036
:1001E0000E949C021F910F9108956F927F928F92AF
:1001F0009F92AF92BF92CF92DF92EF92FF920F93B6
:100200001F93CF93DF934C015B01EA01390168E64C
:1002100070E08BE192E00E94CB04E0911B02F09130
:100220001C020190F081E02D60E08BE192E00995E5
:100230008BE192E00E94440547E050E068E670E000
:100240008BE192E00E9441058BE192E00E9428043C
:100250008F770E948E00F40180838BE192E00E94F0
:1002600028040E948E00F50180838BE192E00E94B9
:1002700028048F730E948E0088838BE192E00E9495
:1002800028040E948E00F30180838BE192E00E949B
:1002900028040E948E00F80180838BE192E00E9486
:1002A00028040E948E00F70180838BE192E00E9477
:1002B00028040E948E00F6018083DF91CF911F9168
:1002C0000F91FF90EF90DF90CF90BF90AF909F90F5
:1002D0008F907F906F900895CF92DF92EF92FF9270
:1002E0000F931F93CF93DF93CDB7DEB727970FB64A
:1002F000F894DEBF0FBECDBFCE0101966C01019612
:100300007C018E010D5F1F4F9E012C5F3F4FAE01A0
:100310004B5F5F4FBE016A5F7F4F05960E94F500FD
:100320004AE050E06D8184EE92E00E94140B68E098
:1003300071E084EE92E00E94960A8E818A3030F459
:100340006AE071E084EE92E00E94960A4AE050E092
:100350006E8184EE92E00E94140B68E071E084EEFE
:1003600092E00E94960A8F818A3030F46AE071E050
:1003700084EE92E00E94960A4AE050E06F8184EE9B
:1003800092E00E94140B6CE071E084EE92E00E9417
:10039000960A4AE050E06B8184EE92E00E94140BD2
:1003A0006EE071E084EE92E00E94960A4AE050E02E
:1003B0006A8184EE92E00E94140B6EE071E084EE9C
:1003C00092E00E94960A4AE050E0698184EE92E051
:1003D0000E941B0B27960FB6F894DEBF0FBECDBF51
:1003E000DF91CF911F910F91FF90EF90DF90CF9011
:1003F00008957F928F929F92AF92BF92CF92DF9299
:10040000EF92FF920F931F93CF93DF93CDB7DEB799
:1004100027970FB6F894DEBF0FBECDBF68EE73E02E
:1004200080E090E00E9498080E946C0188E00E94A1
:10043000F60777247394892B09F0712C89E00E94C8
:10044000F607BB24B394892B09F0B12C87E00E94F6
:10045000F60799249394892B09F0912C86E00E9449
:10046000F60788248394892B09F0812C85E00E946B
:10047000F607AA24A394892B09F0A12C6A2D87E002
:1004800092E00E94AB0280910601909107010196D3
:10049000883C91052CF490930701809306012CC0B1
:1004A0001092070110920601CE0101966C0101968F
:1004B0007C018E010D5F1F4F9E012C5F3F4FAE01EF
:1004C0004B5F5F4FBE016A5F7F4F05960E94F5004C
:1004D00080911A02882331F08D818A3068F0109261
:1004E0001A020AC081E0A81639F09D81993021F4E2
:1004F00080931A02BB24B3944B2D672D87E092E0C2
:100500000E942803482D692D84EF91E00E94280362
:1005100027960FB6F894DEBF0FBECDBFDF91CF9107
:100520001F910F91FF90EF90DF90CF90BF90AF9011
:100530009F908F907F9008950F931F93FC0171837C
:100540006083538342830483158326833783108615
:100550001F910F910895FC01608708950F931F93D9
:10056000CF93DF93EC018B011B861C861D861E86B4
:1005700061E088810E94C00766E970E080E090E059
:100580000E94980861E08A810E94C0071A87098743
:10059000DF91CF911F910F9108950F931F93CF93E8
:1005A000DF9300D000D000D0CDB7DEB78B01FC01C7
:1005B000608171814AE0CE0101960E94730CB801FE
:1005C000CE0101960E94CB0CBC0184EE92E00E9409
:1005D0009C0ACE0101960E94D70B26960FB6F8947E
:1005E000DEBF0FBECDBFDF91CF911F910F91089558
:1005F0000F931F93CF93DF93EC017A876987623063
:10060000710511F461E004C06430710521F460E00B
:100610008A810E94C00766E970E080E090E00E9455
:10062000980860E088810E94C0070E9469080C81D8
:100630001D812E813F81600F711F821F931F6B8769
:100640007C878D879E87DF91CF911F910F910895B1
:10065000BF92CF92DF92EF92FF920F931F93CF93AF
:10066000DF93CDB7DEB727970FB6F894DEBF0FBE86
:10067000CDBF8C01B62EFC01C784D088E188F288FA
:100680004F830E9469084F816C157D058E059F057B
:1006900018F460E171E022C0F8018085882389F0B8
:1006A00066E171E0CE0101960E94450CBE016F5FCC
:1006B0007F4FC8010E94CD02CE0101960E94D70B48
:1006C00002C0BB2091F1F801818592859C012250E6
:1006D00031092230310588F46EE371E0CE010196D4
:1006E0000E94450CBE016F5F7F4FC8010E94CD0282
:1006F000CE0101960E94D70B93C0049719F469E5C7
:1007000071E026C067E671E0CE0101960E94450CBB
:10071000BE016F5F7F4FC8010E94CD02CE010196DE
:100720000E94D70B62E070E041C0442309F441C04D
:10073000F801818592858130910519F08430910509
:1007400019F467E771E0CACF0297F1F460E971E04C
:10075000CE0101960E94450CBE016F5F7F4FC8011C
:100760000E94CD02CE0101960E94D70B0E9469081B
:1007700060577E4F8F4F9F4FF8016787708B818B3B
:10078000928B60E070E043C06FE971E0CE010196AA
:100790000E94450CBE016F5F7F4FC8010E94CD02D1
:1007A000CE0101960E94D70B64E070E0C8010E9460
:1007B000F802F801C384D484E584F6840E946908B1
:1007C0006C157D058E059F0558F1F801838594858C
:1007D000A585B685181619061A061B060CF56EEACD
:1007E00071E0CE0101960E94450CBE016F5F7F4F04
:1007F000C8010E94CD02CE0101960E94D70BF801DC
:10080000818592858230910531F463E070E0C80102
:100810000E94AE0205C0049719F461E070E0F7CFC2
:1008200027960FB6F894DEBF0FBECDBFDF91CF91F4
:100830001F910F91FF90EF90DF90CF90BF900895A0
:1008400080914B0290E020914C02821B9109089507
:1008500020914C0280914B02281750F4E22FF0E0D7
:10086000E35BFD4F808190E02F5F20934C02089561
:100870008FEF9FEF0895E0914C0280914B02E817B3
:1008800030F4F0E0E35BFD4F808190E008958FEF5E
:100890009FEF08950895CF92DF92EF92FF920F930A
:1008A0001F93CF93DF937C01CB018A012091270214
:1008B000222389F0EB016B01C40ED51ECC15DD059A
:1008C00069F06991D701ED91FC910190F081E02DE3
:1008D000C7010995F3CF642F0E940806C801DF9174
:1008E000CF911F910F91FF90EF90DF90CF900895DF
:1008F000CF93DF931F92CDB7DEB769832091270294
:100900002223D1F020912802203240F021E030E073
:10091000FC013383228380E090E015C0809129029E
:10092000E82FF0E0E65DFD4F998190838F5F809323
:1009300029028093280205C061E0CE0101960E9441
:10094000080681E090E00F90DF91CF910895FC01BF
:100950001382128248EE53E060E070E044835583D6
:100960006683778386EC91E091838083089510926B
:100970004C0210924B0210922902109228020C9401
:100980004B0581E08093270260934A02109229026E
:100990001092280208950C94C1040F93062F21E0B1
:1009A000409128026AE272E080914A020E94B105F9
:1009B0001092290210922802109227020F91089596
:1009C0008F929F92AF92BF92CF92DF92EF92FF925F
:1009D0000F931F93CF93DF93EC01F62ED42E480193
:1009E0005901EE2019F10E94C1041E2D143008F0A7
:1009F00013E01150B8F0E881F98128E0129FB001AE
:100A00001124A501940104C0569547953795279563
:100A10006A95D2F7CA01B9010190F081E02DCE01AB
:100A20000995E7CF60E0CE010E94CD044D2D413203
:100A300008F040E22C2D6DE472E08F2D0E946905D4
:100A400010924C0280934B02DF91CF911F910F9136
:100A5000FF90EF90DF90CF90BF90AF909F908F90DE
:100A60000895CF92EF920F931F93C22EE12C00E0D6
:100A700010E098010E94E0041F910F91EF90CF9039
:100A8000089521E00C94310561E00C94CD048BE1D4
:100A900092E00C94A7041092DA0281E08093D802CD
:100AA0001092D70261E082E10E94C00761E083E119
:100AB0000E94C007E9EBF0E080818E7F8083808117
:100AC0008D7F808380E28093B80085E48093BC00B2
:100AD0000895413208F043C09091DA029111FCCFA1
:100AE00091E09093DA022093D8022FEF20936D02C9
:100AF0001092B202240F2093B1029093D9029091E8
:100B0000D902880F892B8093D9028091D702813036
:100B100061F41092D7028091D9028093BB0080913A
:100B2000BC0083FDF8CF85EC01C085EE8093BC004E
:100B30008091DA028130E1F38091B202841710F4DF
:100B40004091B20223EB32E0FB01D9018A2F821BD4
:100B5000841718F48D918193F9CF842F089580E044
:100B600008950F93413208F04AC09091DA02911132
:100B7000FCCF92E09093DA020093D8029FEF90931B
:100B80006D021092B2024093B102FB0163EB72E07E
:100B9000DB019A2F961B941718F491919D93F9CF2E
:100BA0001092D9029091D902880F892B8093D90293
:100BB0008091D702813061F41092D7028091D902DE
:100BC0008093BB008091BC0083FDF8CF85EC01C011
:100BD00085EE8093BC00222321F08091DA028230DE
:100BE000E1F380916D028F3F61F080916D02803260
:100BF00051F080916D02803341F483E007C081E0C1
:100C000005C080E003C082E001C084E00F91089538
:100C1000613298F42091DA02243089F460938F02D3
:100C2000FC0181E992E0DC012A2F281B261718F429
:100C300021912D93F9CF80E0089581E0089582E01D
:100C4000089585ED8093BC008091BC0084FDFCCFAD
:100C50001092DA02089585EC8093BC001092DA02BB
:100C600008951F920F920FB60F9211242F933F9366
:100C70004F935F936F937F938F939F93AF93BF93A4
:100C8000EF93FF938091B900887F803609F49EC06E
:100C900078F5883209F45DC090F4803109F456C0CB
:100CA00038F4882309F4F5C0883009F44FC0F5C042
:100CB000883109F44EC0803209F45FC0EEC0803440
:100CC00009F46AC058F4803309F457C0883309F036
:100CD000E4C080936D020E942B06DFC0803509F4CA
:100CE0004FC0883509F45DC0883409F0D6C0D3C040
:100CF000883909F4C4C0A8F4883709F467C038F407
:100D0000883609F463C0803709F460C0C6C08838EB
:100D100009F4B5C0803909F45FC0803809F0BDC05E
:100D20005BC0803B09F483C038F4803A09F466C0A4
:100D3000883A09F47CC0B1C0803C09F4A4C0883C66
:100D400009F4A1C0883B09F487C0A7C08091D902EB
:100D500010C09091B2028091B102981770F5E091A5
:100D6000B20281E08E0F8093B202F0E0ED54FD4FAD
:100D700080818093BB0085EC83C080936D028BC023
:100D8000E091B20281E08E0F8093B2028091BB00AD
:100D9000F0E0ED54FD4F80839091B2028091B1025A
:100DA0006BC0E091B20281E08E0F8093B20280911D
:100DB000BB00F0E0ED54FD4F80838091D80281119B
:100DC0006AC081E08093D70284EA5EC083E08093AA
:100DD000DA0210926E02CFCF80916E02803208F05C
:100DE0004EC0E0916E0281E08E0F80936E02809182
:100DF000BB00F0E0E159FD4F8083BDCF0E942B0680
:100E000080916E02803230F4E0916E02F0E0E159A0
:100E1000FD4F108260916E0270E0E091D302F0917C
:100E2000D4028FE692E0099510926E0236C084E0FB
:100E30008093DA021092900210928F02E091D50214
:100E4000F091D602099580918F02811105C081E051
:100E500080938F0210929102E091900281E08E0FB8
:100E600080939002F0E0EF56FD4F80818093BB00AD
:100E70009091900280918F02981708F47CCF85E8BA
:100E80008093BC000AC085EC8093BC001092DA020B
:100E900004C010926D020E942106FF91EF91BF9154
:100EA000AF919F918F917F916F915F914F913F9102
:100EB0002F910F900FBE0F901F901895833081F0E7
:100EC00028F4813099F08230A1F008958730A9F09C
:100ED0008830B9F08430D1F4809180008F7D03C0D8
:100EE000809180008F7780938000089584B58F77FC
:100EF00002C084B58F7D84BD08958091B0008F7746
:100F000003C08091B0008F7D8093B0000895CF938F
:100F1000DF9390E0FC01E458FF4F2491FC01E0577F
:100F2000FF4F8491882349F190E0880F991FFC01BD
:100F3000E854FF4FA591B49182559F4FFC01C59194
:100F4000D4919FB7611108C0F8948C9120958223A9
:100F50008C93888182230AC0623051F4F8948C917A
:100F6000322F309583238C938881822B888304C011
:100F7000F8948C91822B8C939FBFDF91CF91089531
:100F80000F931F93CF93DF931F92CDB7DEB7282F18
:100F900030E0F901E859FF4F8491F901E458FF4F1F
:100FA0001491F901E057FF4F04910023C9F0882301
:100FB00021F069830E945E076981E02FF0E0EE0F67
:100FC000FF1FE255FF4FA591B4919FB7F8948C9104
:100FD000611103C01095812301C0812B8C939FBFA9
:100FE0000F90DF91CF911F910F910895CF93DF93D1
:100FF000282F30E0F901E859FF4F8491F901E458B6
:10100000FF4FD491F901E057FF4FC491CC2391F0E9
:1010100081110E945E07EC2FF0E0EE0FFF1FEC55F0
:10102000FF4FA591B4912C912D2381E090E021F404
:1010300080E002C080E090E0DF91CF9108951F92A0
:101040000F920FB60F9211242F933F938F939F937C
:10105000AF93BF938091DC029091DD02A091DE02FC
:10106000B091DF023091DB0226E0230F2D3720F410
:101070000296A11DB11D05C029E8230F0396A11DED
:10108000B11D2093DB028093DC029093DD02A093DC
:10109000DE02B093DF028091E0029091E102A09124
:1010A000E202B091E3020196A11DB11D8093E0021E
:1010B0009093E102A093E202B093E302BF91AF915B
:1010C0009F918F913F912F910F900FBE0F901F9086
:1010D00018952FB7F8946091DC027091DD02809131
:1010E000DE029091DF022FBF08953FB7F894809100
:1010F000E0029091E102A091E202B091E30226B5F4
:10110000A89B05C02F3F19F00196A11DB11D3FBF3F
:101110006627782F892F9A2F620F711D811D911DCF
:1011200043E0660F771F881F991F4A95D1F70895EE
:10113000CF92DF92EF92FF92CF93DF936B017C010E
:101140000E947508EB01C114D104E104F10489F097
:101150000E94DE0C0E9475086C1B7D0B683E73407C
:1011600090F381E0C81AD108E108F108C851DC4FBA
:10117000EACFDF91CF91FF90EF90DF90CF9008956D
:10118000789484B5826084BD84B5816084BD85B562
:10119000826085BD85B5816085BDEEE6F0E0808129
:1011A00081608083E1E8F0E010828081826080834A
:1011B000808181608083E0E8F0E0808181608083CD
:1011C000E1EBF0E0808184608083E0EBF0E08081FF
:1011D00081608083EAE7F0E08081846080838081A1
:1011E0008260808380818E7F80838081806880831D
:1011F0001092C100089508950E94C0080E94FB0843
:101200000E949700C8E3D9E00E94F9012097E1F31A
:101210000E943809F9CFFC01818D228D90E0805C1D
:101220009F4F821B91098F7399270895FC01918D1F
:10123000828D981731F0828DE80FF11D858D90E039
:1012400008958FEF9FEF0895FC01918D828D98177F
:1012500061F0828DDF01A80FB11D5D968C91928D9A
:101260009F5F9F73928F90E008958FEF9FEF089597
:101270008AE89BE0892B49F080E090E0892B29F0F7
:101280000E948A0B81110C9400000895FC01848D4A
:10129000DF01A80FB11DA35ABF4F2C91848D90E0A0
:1012A00001968F739927848FA689B7892C93A0897B
:1012B000B1898C9180648C93938D848D981306C032
:1012C0000288F389E02D80818F7D80830895CF93FC
:1012D000DF93EC01888D8823C9F0EA89FB8980813E
:1012E00085FD05C0A889B9898C9186FD0FC00FB610
:1012F00007FCF5CF808185FFF2CFA889B9898C9151
:1013000085FFEDCFCE010E944609E7CFDF91CF9157
:101310000895CF92DF92FF920F931F93CF93DF93A5
:101320001F92CDB7DEB76C0181E0D60158968C9341
:1013300058975B969C915B975C968C915C97981301
:1013400007C05096ED91FC915197808185FD2EC08C
:10135000F601038D10E00F5F1F4F0F731127F02E62
:10136000F601848DF81211C00FB607FCF9CFD60133
:101370005096ED91FC915197808185FFF1CFC60188
:1013800069830E9446096981EBCF838DE80FF11DC7
:10139000E35AFF4F6083D6015B960C935B9752969E
:1013A000ED91FC915397808180620CC0D6015696D6
:1013B000ED91FC91579760835096ED91FC91519778
:1013C00080818064808381E090E00F90DF91CF91F5
:1013D0001F910F91FF90DF90CF900895BF92CF9211
:1013E000DF92EF92FF92CF93DF93EC016A017B01D2
:1013F000B22E60E874E88EE190E0A70196010E94A9
:10140000DF0C21503109410951095695479537950F
:101410002795E889F98982E08083211580E13807E2
:1014200098F0E889F989108260E472E48FE090E036
:10143000A70196010E94DF0C215031094109510991
:101440005695479537952795EC85FD853083EE8534
:10145000FF852083188EEC89FD89B082EA89FB899B
:10146000808180618083EA89FB89808188608083B4
:10147000EA89FB89808180688083EA89FB89808191
:101480008F7D8083DF91CF91FF90EF90DF90CF90A1
:10149000BF900895CF92DF92EF92FF920F931F9328
:1014A000CF93DF936C017A01EB01E60EF71E00E0AB
:1014B00010E0CE15DF0561F06991D601ED91FC9148
:1014C0000190F081E02DC6010995080F191FF1CF99
:1014D000C801DF91CF911F910F91FF90EF90DF90A6
:1014E000CF9008956115710581F0DB010D9000200A
:1014F000E9F7AD0141505109461B570BDC01ED9155
:10150000FC910280F381E02D099480E090E0089541
:10151000DC01ED91FC91DB0114964D915C911597E6
:101520006D917C910280F381E02D09940C94720AF4
:1015300062EE71E00C94720A0F931F93CF93DF93C6
:10154000EC010E94880A8C01CE010E94980A800F4B
:10155000911FDF91CF911F910F9108958F929F92CC
:10156000AF92BF92CF92DF92EF92FF920F931F93B1
:10157000CF93DF93CDB7DEB7A1970FB6F894DEBF58
:101580000FBECDBF7C01C42EE52FCB01D22E19A2F8
:1015900021E02D1510F02AE0D22E8E010F5D1F4F95
:1015A0008D2C912CA12CB12C6C2D7E2FA50194019A
:1015B0000E94DF0C8C2DD29E80191124015011093C
:1015C0008A3014F4805D01C0895CF80180832115A4
:1015D00031054105510521F0C22EE32FCA01E4CFA8
:1015E000B801C7010E94720AA1960FB6F894DEBF37
:1015F0000FBECDBFDF91CF911F910F91FF90EF9064
:10160000DF90CF90BF90AF909F908F90089521155D
:10161000310541F4DC01ED91FC910190F081E02D68
:10162000642F09940C94AE0A9A01462F50E060E0B2
:1016300070E00C94070B0F931F93CF93DF93EC0193
:101640009A01462F50E060E070E00E94070B8C0189
:10165000CE010E94980A800F911FDF91CF911F91B8
:101660000F9108951F920F920FB60F9211242F938E
:101670008F939F93EF93FF93E091F402F091F50223
:101680008081E091FA02F091FB0282FD12C090810C
:101690008091FD028F5F8F732091FE02821751F0BF
:1016A000E091FD02F0E0EC51FD4F958F8093FD023B
:1016B00001C08081FF91EF919F918F912F910F90A9
:1016C0000FBE0F901F9018951F920F920FB60F929A
:1016D00011242F933F934F935F936F937F938F9337
:1016E0009F93AF93BF93EF93FF9384EE92E00E949A
:1016F0004609FF91EF91BF91AF919F918F917F919B
:101700006F915F914F913F912F910F900FBE0F906E
:101710001F90189584EE92E00E940B0921E0892B1E
:1017200009F420E0822F08951092E7021092E60259
:1017300088EE93E0A0E0B0E08093E8029093E902A5
:10174000A093EA02B093EB0286ED91E09093E5025C
:101750008093E40285EC90E09093F1028093F00294
:1017600084EC90E09093F3028093F20280EC90E09E
:101770009093F5028093F40281EC90E09093F7024D
:101780008093F60282EC90E09093F9028093F80245
:1017900086EC90E09093FB028093FA021092FD0297
:1017A0001092FE021092FF02109200030895FC01B5
:1017B000808191810C949F0DCF93DF93EC01888100
:1017C0009981009711F00E949F0D198218821D8245
:1017D0001C821B821A82DF91CF9108950F931F9371
:1017E000CF93DF93EC018B016F5F7F4F88819981ED
:1017F0000E942E0E009731F0998388831B830A8301
:1018000081E001C080E0DF91CF911F910F91089599
:10181000CF93DF93EC0188819981892B29F08A810C
:101820009B818617970760F4CE010E94EE0B8823F8
:1018300041F08C819D81892B19F4E881F981108216
:1018400081E0DF91CF910895EF92FF920F931F9364
:10185000CF93DF93EC017B018A01BA010E94080C4F
:10186000811104C0CE010E94DC0B07C01D830C83D4
:10187000B701888199810E94010FCE01DF91CF913C
:101880001F910F91FF90EF900895FC01118210823B
:1018900013821282158214826115710559F0FB01C1
:1018A00001900020E9F7AF0141505109461B570B49
:1018B0000C94240C0895CF93DF93EC01611571050E
:1018C00061F0FB0101900020E9F7AF01415051099F
:1018D000461B570B0E94240C02C00E94DC0BCE0159
:1018E000DF91CF9108950F931F93CF93DF93CDB7DF
:1018F000DEB762970FB6F894DEBF0FBECDBF8C0186
:10190000CB01F80111821082138212821582148297
:1019100050E0BE016F5F7F4F0E94080FBE016F5FF6
:101920007F4FC8010E945B0C62960FB6F894DEBF31
:101930000FBECDBFDF91CF911F910F910895EF9210
:10194000FF920F931F93CF93DF93EC017B010C81E8
:101950001D816115710511F480E016C04115510516
:1019600091F0040F151FB8010E94080C8823A1F301
:10197000288139818C819D81B701820F931F0E943C
:10198000010F1D830C8381E0DF91CF911F910F9197
:10199000FF90EF900895CF93DF93EC01FB0144811A
:1019A0005581608171810E949F0C811103C0CE011D
:1019B0000E94DC0BCE01DF91CF9108950895A1E242
:1019C0001A2EAA1BBB1BFD010DC0AA1FBB1FEE1FB9
:1019D000FF1FA217B307E407F50720F0A21BB30B04
:1019E000E40BF50B661F771F881F991F1A9469F780
:1019F00060957095809590959B01AC01BD01CF01DC
:101A00000895EE0FFF1F0590F491E02D0994CF93F8
:101A1000DF938230910510F482E090E0E09183033F
:101A2000F091840320E030E0A0E0B0E0309739F19D
:101A30004081518148175907B8F04817590771F488
:101A400082819381109729F013969C938E9312971D
:101A50002CC0909384038093830327C02115310504
:101A600031F04217530718F0A901DB0101C0EF0163
:101A70009A01BD01DF010280F381E02DD7CF21154E
:101A80003105F9F0281B390B2430310580F48A81A7
:101A90009B816115710521F0FB019383828304C052
:101AA0009093840380938303FE01329644C0FE0129
:101AB000E20FF31F819391932250310939832883D8
:101AC0003AC02091810330918203232B41F420916D
:101AD000020130910301309382032093810320910E
:101AE0000001309101012115310541F42DB73EB7B8
:101AF0004091040150910501241B350BE0918103B5
:101B0000F0918203E217F307A0F42E1B3F0B281776
:101B1000390778F0AC014E5F5F4F2417350748F066
:101B20004E0F5F1F509382034093810381939193E3
:101B300002C0E0E0F0E0CF01DF91CF910895CF93B4
:101B4000DF93009709F487C0FC0132971382128259
:101B5000C0918303D0918403209781F42081318147
:101B6000280F391F80918103909182038217930778
:101B700079F5F0938203E09381036DC0DE0120E0EC
:101B800030E0AE17BF0750F412964D915C91139759
:101B90009D014115510509F1DA01F3CFB383A28309
:101BA00040815181840F951F8A179B0771F48D9195
:101BB0009C911197840F951F0296918380831296B2
:101BC0008D919C911397938382832115310529F47C
:101BD000F0938403E09383033EC0D9011396FC93F2
:101BE000EE9312974D915D91A40FB51FEA17FB0775
:101BF00079F480819181840F951F0296D901119605
:101C00009C938E938281938113969C938E931297CB
:101C1000E0E0F0E08A819B81009719F0FE01EC0181
:101C2000F9CFCE01029628813981820F931F20912E
:101C30008103309182032817390769F4309729F41A
:101C4000109284031092830302C013821282D093F5
:101C50008203C0938103DF91CF910895A0E0B0E0AB
:101C6000E4E3FEE00C944C0FEC01CB01209719F457
:101C70000E94070DB8C0FE01E60FF71F9E0122501B
:101C80003109E217F30708F4ACC0D9010D911C919A
:101C9000119706171707B8F00530110508F49FC013
:101CA000A801445051094617570708F498C002503C
:101CB0001109061B170B019311936D937C93CF01B0
:101CC0000E949F0D8CC05B01A01AB10A4E01800ECC
:101CD000911EA0918303B0918403612C712C60E06C
:101CE00070E0109709F449C0A815B905C9F5ED9041
:101CF000FC901197670142E0C40ED11CCA14DB04AA
:101D000078F147018A189B08640142E0C40ED11C97
:101D10001296BC9012971396AC91B5E0CB16D104F5
:101D200040F0B282A38391828082D9018D939C93EB
:101D300009C00E5F1F4F0E0D1F1DF9011183008397
:101D4000EB2DFA2F6115710531F0DB011396FC9331
:101D5000EE93129744C0F0938403E09383033FC053
:101D60006D917C9111976616770608F43B01BD01D1
:101D700012960D90BC91A02DB4CF6091810370910B
:101D8000820368157905E9F468167906D0F4409164
:101D90000001509101014115510541F44DB75EB765
:101DA0006091040170910501461B570BE417F5077C
:101DB000C0F4F0938203E0938103F901918380835F
:101DC0000EC00E94070D7C01009759F0A801BE01CA
:101DD0000E94F80ECE010E949F0DC70104C0CE01E3
:101DE00002C080E090E0CDB7DEB7EEE00C94680F63
:101DF000FB01DC0102C001900D9241505040D8F728
:101E00000895FB01DC0101900D920020E1F7089597
:101E10004532510520F4423010F00C94130FFB01B1
:101E20001082CB010895BB274A3031F4992322F464
:101E3000BDE2909581959F4F0C941F0FBB27FB012E
:101E40005527AA27880F991FAA1FA41710F0A41BB3
:101E500083955051B9F7A05DAA3308F0A95DA1930D
:101E6000009779F7B111B1931192CB010C94380F0F
:101E7000DC01FC01672F71917723E1F7329704C0F1
:101E80007C916D9370836291AE17BF07C8F308957C
:101E90002F923F924F925F926F927F928F929F927A
:101EA000AF92BF92CF92DF92EF92FF920F931F9368
:101EB000CF93DF93CDB7DEB7CA1BDB0B0FB6F89419
:101EC000DEBF0FBECDBF09942A88398848885F8459
:101ED0006E847D848C849B84AA84B984C884DF80CA
:101EE000EE80FD800C811B81AA81B981CE0FD11DAE
:101EF0000FB6F894DEBF0FBECDBFED010895F89484
:021F0000FFCF11
:101F0200000085038000C8003A00300020002F0046
:101F12004D7574656400446574656374656420720C
:101F220061696E21212121212121212121212121CA
:101F32002121212121212121212121212100416C45
:101F420072656164792064697361626C696E672F7E
:101F520064697361626C65640053746F7020656EAE
:101F620061626C696E670053746172742064697394
:101F720061626C696E6700416C72656164792065AB
:101F82006E61626C696E672F656E61626C6564007A
:101F920053746F702064697361626C696E67005379
:101FA2007461727420656E61626C696E670072653D
:101FB20061636865642066696E6973682074696D1F
:101FC20065000000000078044B04200428043B0450
:101FD2004A040000000089094A0A0B09240916096B
:101FE20067090D0A006E616E00696E66006F7666A3
:041FF200002E0000BD
:00000001FF
